{
	"data": {
		"bytecode": {
			"linkReferences": {},
			"object": "60a060405234801561001057600080fd5b5060405161164b38038061164b83398101604081905261002f91610044565b60601b6001600160601b031916608052610074565b60006020828403121561005657600080fd5b81516001600160a01b038116811461006d57600080fd5b9392505050565b60805160601c6115b36100986000396000818160fa015261031001526115b36000f3fe60806040526004361061007b5760003560e01c8063cb2dee431161004e578063cb2dee4314610134578063e5e2cf8114610147578063e9f25eb31461015a578063ff4af8bf1461016d57600080fd5b80632ac3e95314610080578063748ff339146100a65780638bfb7643146100c8578063c45a0155146100e8575b600080fd5b61009361008e366004611188565b61019a565b6040519081526020015b60405180910390f35b3480156100b257600080fd5b506100c66100c13660046111ee565b6102f9565b005b3480156100d457600080fd5b506100936100e3366004611188565b610444565b3480156100f457600080fd5b5061011c7f000000000000000000000000000000000000000000000000000000000000000081565b6040516001600160a01b03909116815260200161009d565b6100c661014236600461111c565b610592565b6100c661015536600461111c565b610839565b6100c661016836600461111c565b610ace565b34801561017957600080fd5b5061018d610188366004611277565b610d7d565b60405161009d9190611407565b348160005b818110156102e1578484828181106101b9576101b961152b565b90506020028101906101cb91906114b5565b6101d590806114b5565b6101e390602081019061125a565b6001600160a01b0316636d8b99f78686848181106102035761020361152b565b905060200281019061021591906114b5565b6020013587878581811061022b5761022b61152b565b905060200281019061023d91906114b5565b61024790806114b5565b61025590602081019061144b565b87336001336040518863ffffffff1660e01b815260040161027b969594939291906113c3565b6020604051808303818588803b15801561029457600080fd5b505af11580156102a8573d6000803e3d6000fd5b50505050506040513d601f19601f820116820180604052508101906102cd9190611339565b6102d790846114e3565b925060010161019f565b5081156102f2576102f2338361107a565b5092915050565b6040516308f25a8f60e01b81526001600160a01b037f000000000000000000000000000000000000000000000000000000000000000016906308f25a8f906103479033908590600401611388565b60206040518083038186803b15801561035f57600080fd5b505afa158015610373573d6000803e3d6000fd5b505050506040513d601f19601f8201168201806040525081019061039791906111ca565b6103d35760405162461bcd60e51b81526020600482015260086024820152672737ba103830b4b960c11b60448201526064015b60405180910390fd5b604051632142170760e11b81526001600160a01b0385811660048301528481166024830152604482018490528616906342842e0e90606401600060405180830381600087803b15801561042557600080fd5b505af1158015610439573d6000803e3d6000fd5b505050505050505050565b600081815b8181101561058a578484828181106104635761046361152b565b905060200281019061047591906114b5565b61047f90806114b5565b61048d90602081019061125a565b6001600160a01b031663b1d3f1c18686848181106104ad576104ad61152b565b90506020028101906104bf91906114b5565b6104c990806114b5565b6104d790602081019061144b565b8888868181106104e9576104e961152b565b90506020028101906104fb91906114b5565b60200135336001336040518763ffffffff1660e01b8152600401610524969594939291906113c3565b602060405180830381600087803b15801561053e57600080fd5b505af1158015610552573d6000803e3d6000fd5b505050506040513d601f19601f820116820180604052508101906105769190611339565b61058090846114cb565b9250600101610449565b505092915050565b348360005b818110156108205760008787838181106105b3576105b361152b565b90506020028101906105c59190611495565b6105cf90806114b5565b6105dd90602081019061125a565b6001600160a01b031663398482d86040518163ffffffff1660e01b815260040160206040518083038186803b15801561061557600080fd5b505afa158015610629573d6000803e3d6000fd5b505050506040513d601f19601f8201168201806040525081019061064d9190611310565b6001600160801b0316905087878381811061066a5761066a61152b565b905060200281019061067c9190611495565b602001358111610817578787838181106106985761069861152b565b90506020028101906106aa9190611495565b6106b490806114b5565b6106c290602081019061125a565b6001600160a01b0316636d8b99f78989858181106106e2576106e261152b565b90506020028101906106f49190611495565b61070290604081019061144b565b8b8b878181106107145761071461152b565b90506020028101906107269190611495565b61073090806114b5565b61073e90602081019061144b565b905081811061074f5761074f61152b565b905060200201358a8a868181106107685761076861152b565b905060200281019061077a9190611495565b61078490806114b5565b61079290602081019061144b565b88336001336040518863ffffffff1660e01b81526004016107b8969594939291906113c3565b6020604051808303818588803b1580156107d157600080fd5b505af11580156107e5573d6000803e3d6000fd5b50505050506040513d601f19601f8201168201806040525081019061080a9190611339565b61081490856114e3565b93505b50600101610597565b50811561083157610831338361107a565b505050505050565b348360005b81811015610980578686828181106108585761085861152b565b905060200281019061086a91906114b5565b61087490806114b5565b61088290602081019061125a565b6001600160a01b0316636d8b99f78888848181106108a2576108a261152b565b90506020028101906108b491906114b5565b602001358989858181106108ca576108ca61152b565b90506020028101906108dc91906114b5565b6108e690806114b5565b6108f490602081019061144b565b87336001336040518863ffffffff1660e01b815260040161091a969594939291906113c3565b6020604051808303818588803b15801561093357600080fd5b505af1158015610947573d6000803e3d6000fd5b50505050506040513d601f19601f8201168201806040525081019061096c9190611339565b61097690846114e3565b925060010161083e565b50811561099157610991338361107a565b5081905060005b81811015610831578383828181106109b2576109b261152b565b90506020028101906109c491906114b5565b6109ce90806114b5565b6109dc90602081019061125a565b6001600160a01b031663b1d3f1c18585848181106109fc576109fc61152b565b9050602002810190610a0e91906114b5565b610a1890806114b5565b610a2690602081019061144b565b878786818110610a3857610a3861152b565b9050602002810190610a4a91906114b5565b60200135336001336040518763ffffffff1660e01b8152600401610a73969594939291906113c3565b602060405180830381600087803b158015610a8d57600080fd5b505af1158015610aa1573d6000803e3d6000fd5b505050506040513d601f19601f82011682018060405250810190610ac59190611339565b50600101610998565b600081815b81811015610c1457848482818110610aed57610aed61152b565b9050602002810190610aff91906114b5565b610b0990806114b5565b610b1790602081019061125a565b6001600160a01b031663b1d3f1c1868684818110610b3757610b3761152b565b9050602002810190610b4991906114b5565b610b5390806114b5565b610b6190602081019061144b565b888886818110610b7357610b7361152b565b9050602002810190610b8591906114b5565b60200135306001336040518763ffffffff1660e01b8152600401610bae969594939291906113c3565b602060405180830381600087803b158015610bc857600080fd5b505af1158015610bdc573d6000803e3d6000fd5b505050506040513d601f19601f82011682018060405250810190610c009190611339565b610c0a90846114cb565b9250600101610ad3565b5060009050610c2382346114cb565b90508460005b81811015610d6b57878782818110610c4357610c4361152b565b9050602002810190610c5591906114b5565b610c5f90806114b5565b610c6d90602081019061125a565b6001600160a01b0316636d8b99f7898984818110610c8d57610c8d61152b565b9050602002810190610c9f91906114b5565b602001358a8a85818110610cb557610cb561152b565b9050602002810190610cc791906114b5565b610cd190806114b5565b610cdf90602081019061144b565b87336001336040518863ffffffff1660e01b8152600401610d05969594939291906113c3565b6020604051808303818588803b158015610d1e57600080fd5b505af1158015610d32573d6000803e3d6000fd5b50505050506040513d601f19601f82011682018060405250810190610d579190611339565b610d6190846114e3565b9250600101610c29565b5050801561083157610831338261107a565b60606000610d8c8460016114cb565b67ffffffffffffffff811115610da457610da4611541565b604051908082528060200260200182016040528015610dcd578160200160208202803683370190505b50905060008315610e5e5760405163a5cb2b9160e01b8152600481018690526001600160a01b0387169063a5cb2b919060240160c06040518083038186803b158015610e1857600080fd5b505afa158015610e2c573d6000803e3d6000fd5b505050506040513d601f19601f82011682018060405250810190610e5091906112b9565b50909450610edf9350505050565b604051630614af2b60e11b8152600481018690526001600160a01b03871690630c295e569060240160c06040518083038186803b158015610e9e57600080fd5b505afa158015610eb2573d6000803e3d6000fd5b505050506040513d601f19601f82011682018060405250810190610ed691906112b9565b50909450505050505b80828681518110610ef257610ef261152b565b602090810291909101015260015b8581101561106f5760008515610fa5576001600160a01b03881663a5cb2b91610f29848a6114e3565b6040518263ffffffff1660e01b8152600401610f4791815260200190565b60c06040518083038186803b158015610f5f57600080fd5b505afa158015610f73573d6000803e3d6000fd5b505050506040513d601f19601f82011682018060405250810190610f9791906112b9565b509094506110359350505050565b6001600160a01b038816630c295e56610fbe848a6114e3565b6040518263ffffffff1660e01b8152600401610fdc91815260200190565b60c06040518083038186803b158015610ff457600080fd5b505afa158015611008573d6000803e3d6000fd5b505050506040513d601f19601f8201168201806040525081019061102c91906112b9565b50909450505050505b61103f81846114e3565b8483815181106110515761105161152b565b60209081029190910101525080611067816114fa565b915050610f00565b509095945050505050565b600080600080600085875af19050806110cb5760405162461bcd60e51b815260206004820152601360248201527211551217d514905394d1915497d19052531151606a1b60448201526064016103ca565b505050565b60008083601f8401126110e257600080fd5b50813567ffffffffffffffff8111156110fa57600080fd5b6020830191508360208260051b850101111561111557600080fd5b9250929050565b6000806000806040858703121561113257600080fd5b843567ffffffffffffffff8082111561114a57600080fd5b611156888389016110d0565b9096509450602087013591508082111561116f57600080fd5b5061117c878288016110d0565b95989497509550505050565b6000806020838503121561119b57600080fd5b823567ffffffffffffffff8111156111b257600080fd5b6111be858286016110d0565b90969095509350505050565b6000602082840312156111dc57600080fd5b81516111e78161156f565b9392505050565b600080600080600060a0868803121561120657600080fd5b853561121181611557565b9450602086013561122181611557565b9350604086013561123181611557565b92506060860135915060808601356004811061124c57600080fd5b809150509295509295909350565b60006020828403121561126c57600080fd5b81356111e781611557565b60008060006060848603121561128c57600080fd5b833561129781611557565b92506020840135915060408401356112ae8161156f565b809150509250925092565b60008060008060008060c087890312156112d257600080fd5b8651600381106112e157600080fd5b6020880151604089015160608a015160808b015160a0909b0151939c929b509099909850965090945092505050565b60006020828403121561132257600080fd5b81516001600160801b03811681146111e757600080fd5b60006020828403121561134b57600080fd5b5051919050565b81835260006001600160fb1b0383111561136b57600080fd5b8260051b8083602087013760009401602001938452509192915050565b6001600160a01b038316815260408101600483106113b657634e487b7160e01b600052602160045260246000fd5b8260208301529392505050565b60a0815260006113d760a08301888a611352565b6020830196909652506001600160a01b039384166040820152911515606083015290911660809091015292915050565b6020808252825182820181905260009190848201906040850190845b8181101561143f57835183529284019291840191600101611423565b50909695505050505050565b6000808335601e1984360301811261146257600080fd5b83018035915067ffffffffffffffff82111561147d57600080fd5b6020019150600581901b360382131561111557600080fd5b60008235605e198336030181126114ab57600080fd5b9190910192915050565b60008235603e198336030181126114ab57600080fd5b600082198211156114de576114de611515565b500190565b6000828210156114f5576114f5611515565b500390565b600060001982141561150e5761150e611515565b5060010190565b634e487b7160e01b600052601160045260246000fd5b634e487b7160e01b600052603260045260246000fd5b634e487b7160e01b600052604160045260246000fd5b6001600160a01b038116811461156c57600080fd5b50565b801515811461156c57600080fdfea26469706673582212204bda1825a36c39bd3467480bdeccefcfeb2a6ce5895979be0f84baa463bfe4a164736f6c63430008070033",
			"opcodes": "PUSH1 0xA0 PUSH1 0x40 MSTORE CALLVALUE DUP1 ISZERO PUSH2 0x10 JUMPI PUSH1 0x0 DUP1 REVERT JUMPDEST POP PUSH1 0x40 MLOAD PUSH2 0x164B CODESIZE SUB DUP1 PUSH2 0x164B DUP4 CODECOPY DUP2 ADD PUSH1 0x40 DUP2 SWAP1 MSTORE PUSH2 0x2F SWAP2 PUSH2 0x44 JUMP JUMPDEST PUSH1 0x60 SHL PUSH1 0x1 PUSH1 0x1 PUSH1 0x60 SHL SUB NOT AND PUSH1 0x80 MSTORE PUSH2 0x74 JUMP JUMPDEST PUSH1 0x0 PUSH1 0x20 DUP3 DUP5 SUB SLT ISZERO PUSH2 0x56 JUMPI PUSH1 0x0 DUP1 REVERT JUMPDEST DUP2 MLOAD PUSH1 0x1 PUSH1 0x1 PUSH1 0xA0 SHL SUB DUP2 AND DUP2 EQ PUSH2 0x6D JUMPI PUSH1 0x0 DUP1 REVERT JUMPDEST SWAP4 SWAP3 POP POP POP JUMP JUMPDEST PUSH1 0x80 MLOAD PUSH1 0x60 SHR PUSH2 0x15B3 PUSH2 0x98 PUSH1 0x0 CODECOPY PUSH1 0x0 DUP2 DUP2 PUSH1 0xFA ADD MSTORE PUSH2 0x310 ADD MSTORE PUSH2 0x15B3 PUSH1 0x0 RETURN INVALID PUSH1 0x80 PUSH1 0x40 MSTORE PUSH1 0x4 CALLDATASIZE LT PUSH2 0x7B JUMPI PUSH1 0x0 CALLDATALOAD PUSH1 0xE0 SHR DUP1 PUSH4 0xCB2DEE43 GT PUSH2 0x4E JUMPI DUP1 PUSH4 0xCB2DEE43 EQ PUSH2 0x134 JUMPI DUP1 PUSH4 0xE5E2CF81 EQ PUSH2 0x147 JUMPI DUP1 PUSH4 0xE9F25EB3 EQ PUSH2 0x15A JUMPI DUP1 PUSH4 0xFF4AF8BF EQ PUSH2 0x16D JUMPI PUSH1 0x0 DUP1 REVERT JUMPDEST DUP1 PUSH4 0x2AC3E953 EQ PUSH2 0x80 JUMPI DUP1 PUSH4 0x748FF339 EQ PUSH2 0xA6 JUMPI DUP1 PUSH4 0x8BFB7643 EQ PUSH2 0xC8 JUMPI DUP1 PUSH4 0xC45A0155 EQ PUSH2 0xE8 JUMPI JUMPDEST PUSH1 0x0 DUP1 REVERT JUMPDEST PUSH2 0x93 PUSH2 0x8E CALLDATASIZE PUSH1 0x4 PUSH2 0x1188 JUMP JUMPDEST PUSH2 0x19A JUMP JUMPDEST PUSH1 0x40 MLOAD SWAP1 DUP2 MSTORE PUSH1 0x20 ADD JUMPDEST PUSH1 0x40 MLOAD DUP1 SWAP2 SUB SWAP1 RETURN JUMPDEST CALLVALUE DUP1 ISZERO PUSH2 0xB2 JUMPI PUSH1 0x0 DUP1 REVERT JUMPDEST POP PUSH2 0xC6 PUSH2 0xC1 CALLDATASIZE PUSH1 0x4 PUSH2 0x11EE JUMP JUMPDEST PUSH2 0x2F9 JUMP JUMPDEST STOP JUMPDEST CALLVALUE DUP1 ISZERO PUSH2 0xD4 JUMPI PUSH1 0x0 DUP1 REVERT JUMPDEST POP PUSH2 0x93 PUSH2 0xE3 CALLDATASIZE PUSH1 0x4 PUSH2 0x1188 JUMP JUMPDEST PUSH2 0x444 JUMP JUMPDEST CALLVALUE DUP1 ISZERO PUSH2 0xF4 JUMPI PUSH1 0x0 DUP1 REVERT JUMPDEST POP PUSH2 0x11C PUSH32 0x0 DUP2 JUMP JUMPDEST PUSH1 0x40 MLOAD PUSH1 0x1 PUSH1 0x1 PUSH1 0xA0 SHL SUB SWAP1 SWAP2 AND DUP2 MSTORE PUSH1 0x20 ADD PUSH2 0x9D JUMP JUMPDEST PUSH2 0xC6 PUSH2 0x142 CALLDATASIZE PUSH1 0x4 PUSH2 0x111C JUMP JUMPDEST PUSH2 0x592 JUMP JUMPDEST PUSH2 0xC6 PUSH2 0x155 CALLDATASIZE PUSH1 0x4 PUSH2 0x111C JUMP JUMPDEST PUSH2 0x839 JUMP JUMPDEST PUSH2 0xC6 PUSH2 0x168 CALLDATASIZE PUSH1 0x4 PUSH2 0x111C JUMP JUMPDEST PUSH2 0xACE JUMP JUMPDEST CALLVALUE DUP1 ISZERO PUSH2 0x179 JUMPI PUSH1 0x0 DUP1 REVERT JUMPDEST POP PUSH2 0x18D PUSH2 0x188 CALLDATASIZE PUSH1 0x4 PUSH2 0x1277 JUMP JUMPDEST PUSH2 0xD7D JUMP JUMPDEST PUSH1 0x40 MLOAD PUSH2 0x9D SWAP2 SWAP1 PUSH2 0x1407 JUMP JUMPDEST CALLVALUE DUP2 PUSH1 0x0 JUMPDEST DUP2 DUP2 LT ISZERO PUSH2 0x2E1 JUMPI DUP5 DUP5 DUP3 DUP2 DUP2 LT PUSH2 0x1B9 JUMPI PUSH2 0x1B9 PUSH2 0x152B JUMP JUMPDEST SWAP1 POP PUSH1 0x20 MUL DUP2 ADD SWAP1 PUSH2 0x1CB SWAP2 SWAP1 PUSH2 0x14B5 JUMP JUMPDEST PUSH2 0x1D5 SWAP1 DUP1 PUSH2 0x14B5 JUMP JUMPDEST PUSH2 0x1E3 SWAP1 PUSH1 0x20 DUP2 ADD SWAP1 PUSH2 0x125A JUMP JUMPDEST PUSH1 0x1 PUSH1 0x1 PUSH1 0xA0 SHL SUB AND PUSH4 0x6D8B99F7 DUP7 DUP7 DUP5 DUP2 DUP2 LT PUSH2 0x203 JUMPI PUSH2 0x203 PUSH2 0x152B JUMP JUMPDEST SWAP1 POP PUSH1 0x20 MUL DUP2 ADD SWAP1 PUSH2 0x215 SWAP2 SWAP1 PUSH2 0x14B5 JUMP JUMPDEST PUSH1 0x20 ADD CALLDATALOAD DUP8 DUP8 DUP6 DUP2 DUP2 LT PUSH2 0x22B JUMPI PUSH2 0x22B PUSH2 0x152B JUMP JUMPDEST SWAP1 POP PUSH1 0x20 MUL DUP2 ADD SWAP1 PUSH2 0x23D SWAP2 SWAP1 PUSH2 0x14B5 JUMP JUMPDEST PUSH2 0x247 SWAP1 DUP1 PUSH2 0x14B5 JUMP JUMPDEST PUSH2 0x255 SWAP1 PUSH1 0x20 DUP2 ADD SWAP1 PUSH2 0x144B JUMP JUMPDEST DUP8 CALLER PUSH1 0x1 CALLER PUSH1 0x40 MLOAD DUP9 PUSH4 0xFFFFFFFF AND PUSH1 0xE0 SHL DUP2 MSTORE PUSH1 0x4 ADD PUSH2 0x27B SWAP7 SWAP6 SWAP5 SWAP4 SWAP3 SWAP2 SWAP1 PUSH2 0x13C3 JUMP JUMPDEST PUSH1 0x20 PUSH1 0x40 MLOAD DUP1 DUP4 SUB DUP2 DUP6 DUP9 DUP1 EXTCODESIZE ISZERO DUP1 ISZERO PUSH2 0x294 JUMPI PUSH1 0x0 DUP1 REVERT JUMPDEST POP GAS CALL ISZERO DUP1 ISZERO PUSH2 0x2A8 JUMPI RETURNDATASIZE PUSH1 0x0 DUP1 RETURNDATACOPY RETURNDATASIZE PUSH1 0x0 REVERT JUMPDEST POP POP POP POP POP PUSH1 0x40 MLOAD RETURNDATASIZE PUSH1 0x1F NOT PUSH1 0x1F DUP3 ADD AND DUP3 ADD DUP1 PUSH1 0x40 MSTORE POP DUP2 ADD SWAP1 PUSH2 0x2CD SWAP2 SWAP1 PUSH2 0x1339 JUMP JUMPDEST PUSH2 0x2D7 SWAP1 DUP5 PUSH2 0x14E3 JUMP JUMPDEST SWAP3 POP PUSH1 0x1 ADD PUSH2 0x19F JUMP JUMPDEST POP DUP2 ISZERO PUSH2 0x2F2 JUMPI PUSH2 0x2F2 CALLER DUP4 PUSH2 0x107A JUMP JUMPDEST POP SWAP3 SWAP2 POP POP JUMP JUMPDEST PUSH1 0x40 MLOAD PUSH4 0x8F25A8F PUSH1 0xE0 SHL DUP2 MSTORE PUSH1 0x1 PUSH1 0x1 PUSH1 0xA0 SHL SUB PUSH32 0x0 AND SWAP1 PUSH4 0x8F25A8F SWAP1 PUSH2 0x347 SWAP1 CALLER SWAP1 DUP6 SWAP1 PUSH1 0x4 ADD PUSH2 0x1388 JUMP JUMPDEST PUSH1 0x20 PUSH1 0x40 MLOAD DUP1 DUP4 SUB DUP2 DUP7 DUP1 EXTCODESIZE ISZERO DUP1 ISZERO PUSH2 0x35F JUMPI PUSH1 0x0 DUP1 REVERT JUMPDEST POP GAS STATICCALL ISZERO DUP1 ISZERO PUSH2 0x373 JUMPI RETURNDATASIZE PUSH1 0x0 DUP1 RETURNDATACOPY RETURNDATASIZE PUSH1 0x0 REVERT JUMPDEST POP POP POP POP PUSH1 0x40 MLOAD RETURNDATASIZE PUSH1 0x1F NOT PUSH1 0x1F DUP3 ADD AND DUP3 ADD DUP1 PUSH1 0x40 MSTORE POP DUP2 ADD SWAP1 PUSH2 0x397 SWAP2 SWAP1 PUSH2 0x11CA JUMP JUMPDEST PUSH2 0x3D3 JUMPI PUSH1 0x40 MLOAD PUSH3 0x461BCD PUSH1 0xE5 SHL DUP2 MSTORE PUSH1 0x20 PUSH1 0x4 DUP3 ADD MSTORE PUSH1 0x8 PUSH1 0x24 DUP3 ADD MSTORE PUSH8 0x2737BA103830B4B9 PUSH1 0xC1 SHL PUSH1 0x44 DUP3 ADD MSTORE PUSH1 0x64 ADD JUMPDEST PUSH1 0x40 MLOAD DUP1 SWAP2 SUB SWAP1 REVERT JUMPDEST PUSH1 0x40 MLOAD PUSH4 0x21421707 PUSH1 0xE1 SHL DUP2 MSTORE PUSH1 0x1 PUSH1 0x1 PUSH1 0xA0 SHL SUB DUP6 DUP2 AND PUSH1 0x4 DUP4 ADD MSTORE DUP5 DUP2 AND PUSH1 0x24 DUP4 ADD MSTORE PUSH1 0x44 DUP3 ADD DUP5 SWAP1 MSTORE DUP7 AND SWAP1 PUSH4 0x42842E0E SWAP1 PUSH1 0x64 ADD PUSH1 0x0 PUSH1 0x40 MLOAD DUP1 DUP4 SUB DUP2 PUSH1 0x0 DUP8 DUP1 EXTCODESIZE ISZERO DUP1 ISZERO PUSH2 0x425 JUMPI PUSH1 0x0 DUP1 REVERT JUMPDEST POP GAS CALL ISZERO DUP1 ISZERO PUSH2 0x439 JUMPI RETURNDATASIZE PUSH1 0x0 DUP1 RETURNDATACOPY RETURNDATASIZE PUSH1 0x0 REVERT JUMPDEST POP POP POP POP POP POP POP POP POP JUMP JUMPDEST PUSH1 0x0 DUP2 DUP2 JUMPDEST DUP2 DUP2 LT ISZERO PUSH2 0x58A JUMPI DUP5 DUP5 DUP3 DUP2 DUP2 LT PUSH2 0x463 JUMPI PUSH2 0x463 PUSH2 0x152B JUMP JUMPDEST SWAP1 POP PUSH1 0x20 MUL DUP2 ADD SWAP1 PUSH2 0x475 SWAP2 SWAP1 PUSH2 0x14B5 JUMP JUMPDEST PUSH2 0x47F SWAP1 DUP1 PUSH2 0x14B5 JUMP JUMPDEST PUSH2 0x48D SWAP1 PUSH1 0x20 DUP2 ADD SWAP1 PUSH2 0x125A JUMP JUMPDEST PUSH1 0x1 PUSH1 0x1 PUSH1 0xA0 SHL SUB AND PUSH4 0xB1D3F1C1 DUP7 DUP7 DUP5 DUP2 DUP2 LT PUSH2 0x4AD JUMPI PUSH2 0x4AD PUSH2 0x152B JUMP JUMPDEST SWAP1 POP PUSH1 0x20 MUL DUP2 ADD SWAP1 PUSH2 0x4BF SWAP2 SWAP1 PUSH2 0x14B5 JUMP JUMPDEST PUSH2 0x4C9 SWAP1 DUP1 PUSH2 0x14B5 JUMP JUMPDEST PUSH2 0x4D7 SWAP1 PUSH1 0x20 DUP2 ADD SWAP1 PUSH2 0x144B JUMP JUMPDEST DUP9 DUP9 DUP7 DUP2 DUP2 LT PUSH2 0x4E9 JUMPI PUSH2 0x4E9 PUSH2 0x152B JUMP JUMPDEST SWAP1 POP PUSH1 0x20 MUL DUP2 ADD SWAP1 PUSH2 0x4FB SWAP2 SWAP1 PUSH2 0x14B5 JUMP JUMPDEST PUSH1 0x20 ADD CALLDATALOAD CALLER PUSH1 0x1 CALLER PUSH1 0x40 MLOAD DUP8 PUSH4 0xFFFFFFFF AND PUSH1 0xE0 SHL DUP2 MSTORE PUSH1 0x4 ADD PUSH2 0x524 SWAP7 SWAP6 SWAP5 SWAP4 SWAP3 SWAP2 SWAP1 PUSH2 0x13C3 JUMP JUMPDEST PUSH1 0x20 PUSH1 0x40 MLOAD DUP1 DUP4 SUB DUP2 PUSH1 0x0 DUP8 DUP1 EXTCODESIZE ISZERO DUP1 ISZERO PUSH2 0x53E JUMPI PUSH1 0x0 DUP1 REVERT JUMPDEST POP GAS CALL ISZERO DUP1 ISZERO PUSH2 0x552 JUMPI RETURNDATASIZE PUSH1 0x0 DUP1 RETURNDATACOPY RETURNDATASIZE PUSH1 0x0 REVERT JUMPDEST POP POP POP POP PUSH1 0x40 MLOAD RETURNDATASIZE PUSH1 0x1F NOT PUSH1 0x1F DUP3 ADD AND DUP3 ADD DUP1 PUSH1 0x40 MSTORE POP DUP2 ADD SWAP1 PUSH2 0x576 SWAP2 SWAP1 PUSH2 0x1339 JUMP JUMPDEST PUSH2 0x580 SWAP1 DUP5 PUSH2 0x14CB JUMP JUMPDEST SWAP3 POP PUSH1 0x1 ADD PUSH2 0x449 JUMP JUMPDEST POP POP SWAP3 SWAP2 POP POP JUMP JUMPDEST CALLVALUE DUP4 PUSH1 0x0 JUMPDEST DUP2 DUP2 LT ISZERO PUSH2 0x820 JUMPI PUSH1 0x0 DUP8 DUP8 DUP4 DUP2 DUP2 LT PUSH2 0x5B3 JUMPI PUSH2 0x5B3 PUSH2 0x152B JUMP JUMPDEST SWAP1 POP PUSH1 0x20 MUL DUP2 ADD SWAP1 PUSH2 0x5C5 SWAP2 SWAP1 PUSH2 0x1495 JUMP JUMPDEST PUSH2 0x5CF SWAP1 DUP1 PUSH2 0x14B5 JUMP JUMPDEST PUSH2 0x5DD SWAP1 PUSH1 0x20 DUP2 ADD SWAP1 PUSH2 0x125A JUMP JUMPDEST PUSH1 0x1 PUSH1 0x1 PUSH1 0xA0 SHL SUB AND PUSH4 0x398482D8 PUSH1 0x40 MLOAD DUP2 PUSH4 0xFFFFFFFF AND PUSH1 0xE0 SHL DUP2 MSTORE PUSH1 0x4 ADD PUSH1 0x20 PUSH1 0x40 MLOAD DUP1 DUP4 SUB DUP2 DUP7 DUP1 EXTCODESIZE ISZERO DUP1 ISZERO PUSH2 0x615 JUMPI PUSH1 0x0 DUP1 REVERT JUMPDEST POP GAS STATICCALL ISZERO DUP1 ISZERO PUSH2 0x629 JUMPI RETURNDATASIZE PUSH1 0x0 DUP1 RETURNDATACOPY RETURNDATASIZE PUSH1 0x0 REVERT JUMPDEST POP POP POP POP PUSH1 0x40 MLOAD RETURNDATASIZE PUSH1 0x1F NOT PUSH1 0x1F DUP3 ADD AND DUP3 ADD DUP1 PUSH1 0x40 MSTORE POP DUP2 ADD SWAP1 PUSH2 0x64D SWAP2 SWAP1 PUSH2 0x1310 JUMP JUMPDEST PUSH1 0x1 PUSH1 0x1 PUSH1 0x80 SHL SUB AND SWAP1 POP DUP8 DUP8 DUP4 DUP2 DUP2 LT PUSH2 0x66A JUMPI PUSH2 0x66A PUSH2 0x152B JUMP JUMPDEST SWAP1 POP PUSH1 0x20 MUL DUP2 ADD SWAP1 PUSH2 0x67C SWAP2 SWAP1 PUSH2 0x1495 JUMP JUMPDEST PUSH1 0x20 ADD CALLDATALOAD DUP2 GT PUSH2 0x817 JUMPI DUP8 DUP8 DUP4 DUP2 DUP2 LT PUSH2 0x698 JUMPI PUSH2 0x698 PUSH2 0x152B JUMP JUMPDEST SWAP1 POP PUSH1 0x20 MUL DUP2 ADD SWAP1 PUSH2 0x6AA SWAP2 SWAP1 PUSH2 0x1495 JUMP JUMPDEST PUSH2 0x6B4 SWAP1 DUP1 PUSH2 0x14B5 JUMP JUMPDEST PUSH2 0x6C2 SWAP1 PUSH1 0x20 DUP2 ADD SWAP1 PUSH2 0x125A JUMP JUMPDEST PUSH1 0x1 PUSH1 0x1 PUSH1 0xA0 SHL SUB AND PUSH4 0x6D8B99F7 DUP10 DUP10 DUP6 DUP2 DUP2 LT PUSH2 0x6E2 JUMPI PUSH2 0x6E2 PUSH2 0x152B JUMP JUMPDEST SWAP1 POP PUSH1 0x20 MUL DUP2 ADD SWAP1 PUSH2 0x6F4 SWAP2 SWAP1 PUSH2 0x1495 JUMP JUMPDEST PUSH2 0x702 SWAP1 PUSH1 0x40 DUP2 ADD SWAP1 PUSH2 0x144B JUMP JUMPDEST DUP12 DUP12 DUP8 DUP2 DUP2 LT PUSH2 0x714 JUMPI PUSH2 0x714 PUSH2 0x152B JUMP JUMPDEST SWAP1 POP PUSH1 0x20 MUL DUP2 ADD SWAP1 PUSH2 0x726 SWAP2 SWAP1 PUSH2 0x1495 JUMP JUMPDEST PUSH2 0x730 SWAP1 DUP1 PUSH2 0x14B5 JUMP JUMPDEST PUSH2 0x73E SWAP1 PUSH1 0x20 DUP2 ADD SWAP1 PUSH2 0x144B JUMP JUMPDEST SWAP1 POP DUP2 DUP2 LT PUSH2 0x74F JUMPI PUSH2 0x74F PUSH2 0x152B JUMP JUMPDEST SWAP1 POP PUSH1 0x20 MUL ADD CALLDATALOAD DUP11 DUP11 DUP7 DUP2 DUP2 LT PUSH2 0x768 JUMPI PUSH2 0x768 PUSH2 0x152B JUMP JUMPDEST SWAP1 POP PUSH1 0x20 MUL DUP2 ADD SWAP1 PUSH2 0x77A SWAP2 SWAP1 PUSH2 0x1495 JUMP JUMPDEST PUSH2 0x784 SWAP1 DUP1 PUSH2 0x14B5 JUMP JUMPDEST PUSH2 0x792 SWAP1 PUSH1 0x20 DUP2 ADD SWAP1 PUSH2 0x144B JUMP JUMPDEST DUP9 CALLER PUSH1 0x1 CALLER PUSH1 0x40 MLOAD DUP9 PUSH4 0xFFFFFFFF AND PUSH1 0xE0 SHL DUP2 MSTORE PUSH1 0x4 ADD PUSH2 0x7B8 SWAP7 SWAP6 SWAP5 SWAP4 SWAP3 SWAP2 SWAP1 PUSH2 0x13C3 JUMP JUMPDEST PUSH1 0x20 PUSH1 0x40 MLOAD DUP1 DUP4 SUB DUP2 DUP6 DUP9 DUP1 EXTCODESIZE ISZERO DUP1 ISZERO PUSH2 0x7D1 JUMPI PUSH1 0x0 DUP1 REVERT JUMPDEST POP GAS CALL ISZERO DUP1 ISZERO PUSH2 0x7E5 JUMPI RETURNDATASIZE PUSH1 0x0 DUP1 RETURNDATACOPY RETURNDATASIZE PUSH1 0x0 REVERT JUMPDEST POP POP POP POP POP PUSH1 0x40 MLOAD RETURNDATASIZE PUSH1 0x1F NOT PUSH1 0x1F DUP3 ADD AND DUP3 ADD DUP1 PUSH1 0x40 MSTORE POP DUP2 ADD SWAP1 PUSH2 0x80A SWAP2 SWAP1 PUSH2 0x1339 JUMP JUMPDEST PUSH2 0x814 SWAP1 DUP6 PUSH2 0x14E3 JUMP JUMPDEST SWAP4 POP JUMPDEST POP PUSH1 0x1 ADD PUSH2 0x597 JUMP JUMPDEST POP DUP2 ISZERO PUSH2 0x831 JUMPI PUSH2 0x831 CALLER DUP4 PUSH2 0x107A JUMP JUMPDEST POP POP POP POP POP POP JUMP JUMPDEST CALLVALUE DUP4 PUSH1 0x0 JUMPDEST DUP2 DUP2 LT ISZERO PUSH2 0x980 JUMPI DUP7 DUP7 DUP3 DUP2 DUP2 LT PUSH2 0x858 JUMPI PUSH2 0x858 PUSH2 0x152B JUMP JUMPDEST SWAP1 POP PUSH1 0x20 MUL DUP2 ADD SWAP1 PUSH2 0x86A SWAP2 SWAP1 PUSH2 0x14B5 JUMP JUMPDEST PUSH2 0x874 SWAP1 DUP1 PUSH2 0x14B5 JUMP JUMPDEST PUSH2 0x882 SWAP1 PUSH1 0x20 DUP2 ADD SWAP1 PUSH2 0x125A JUMP JUMPDEST PUSH1 0x1 PUSH1 0x1 PUSH1 0xA0 SHL SUB AND PUSH4 0x6D8B99F7 DUP9 DUP9 DUP5 DUP2 DUP2 LT PUSH2 0x8A2 JUMPI PUSH2 0x8A2 PUSH2 0x152B JUMP JUMPDEST SWAP1 POP PUSH1 0x20 MUL DUP2 ADD SWAP1 PUSH2 0x8B4 SWAP2 SWAP1 PUSH2 0x14B5 JUMP JUMPDEST PUSH1 0x20 ADD CALLDATALOAD DUP10 DUP10 DUP6 DUP2 DUP2 LT PUSH2 0x8CA JUMPI PUSH2 0x8CA PUSH2 0x152B JUMP JUMPDEST SWAP1 POP PUSH1 0x20 MUL DUP2 ADD SWAP1 PUSH2 0x8DC SWAP2 SWAP1 PUSH2 0x14B5 JUMP JUMPDEST PUSH2 0x8E6 SWAP1 DUP1 PUSH2 0x14B5 JUMP JUMPDEST PUSH2 0x8F4 SWAP1 PUSH1 0x20 DUP2 ADD SWAP1 PUSH2 0x144B JUMP JUMPDEST DUP8 CALLER PUSH1 0x1 CALLER PUSH1 0x40 MLOAD DUP9 PUSH4 0xFFFFFFFF AND PUSH1 0xE0 SHL DUP2 MSTORE PUSH1 0x4 ADD PUSH2 0x91A SWAP7 SWAP6 SWAP5 SWAP4 SWAP3 SWAP2 SWAP1 PUSH2 0x13C3 JUMP JUMPDEST PUSH1 0x20 PUSH1 0x40 MLOAD DUP1 DUP4 SUB DUP2 DUP6 DUP9 DUP1 EXTCODESIZE ISZERO DUP1 ISZERO PUSH2 0x933 JUMPI PUSH1 0x0 DUP1 REVERT JUMPDEST POP GAS CALL ISZERO DUP1 ISZERO PUSH2 0x947 JUMPI RETURNDATASIZE PUSH1 0x0 DUP1 RETURNDATACOPY RETURNDATASIZE PUSH1 0x0 REVERT JUMPDEST POP POP POP POP POP PUSH1 0x40 MLOAD RETURNDATASIZE PUSH1 0x1F NOT PUSH1 0x1F DUP3 ADD AND DUP3 ADD DUP1 PUSH1 0x40 MSTORE POP DUP2 ADD SWAP1 PUSH2 0x96C SWAP2 SWAP1 PUSH2 0x1339 JUMP JUMPDEST PUSH2 0x976 SWAP1 DUP5 PUSH2 0x14E3 JUMP JUMPDEST SWAP3 POP PUSH1 0x1 ADD PUSH2 0x83E JUMP JUMPDEST POP DUP2 ISZERO PUSH2 0x991 JUMPI PUSH2 0x991 CALLER DUP4 PUSH2 0x107A JUMP JUMPDEST POP DUP2 SWAP1 POP PUSH1 0x0 JUMPDEST DUP2 DUP2 LT ISZERO PUSH2 0x831 JUMPI DUP4 DUP4 DUP3 DUP2 DUP2 LT PUSH2 0x9B2 JUMPI PUSH2 0x9B2 PUSH2 0x152B JUMP JUMPDEST SWAP1 POP PUSH1 0x20 MUL DUP2 ADD SWAP1 PUSH2 0x9C4 SWAP2 SWAP1 PUSH2 0x14B5 JUMP JUMPDEST PUSH2 0x9CE SWAP1 DUP1 PUSH2 0x14B5 JUMP JUMPDEST PUSH2 0x9DC SWAP1 PUSH1 0x20 DUP2 ADD SWAP1 PUSH2 0x125A JUMP JUMPDEST PUSH1 0x1 PUSH1 0x1 PUSH1 0xA0 SHL SUB AND PUSH4 0xB1D3F1C1 DUP6 DUP6 DUP5 DUP2 DUP2 LT PUSH2 0x9FC JUMPI PUSH2 0x9FC PUSH2 0x152B JUMP JUMPDEST SWAP1 POP PUSH1 0x20 MUL DUP2 ADD SWAP1 PUSH2 0xA0E SWAP2 SWAP1 PUSH2 0x14B5 JUMP JUMPDEST PUSH2 0xA18 SWAP1 DUP1 PUSH2 0x14B5 JUMP JUMPDEST PUSH2 0xA26 SWAP1 PUSH1 0x20 DUP2 ADD SWAP1 PUSH2 0x144B JUMP JUMPDEST DUP8 DUP8 DUP7 DUP2 DUP2 LT PUSH2 0xA38 JUMPI PUSH2 0xA38 PUSH2 0x152B JUMP JUMPDEST SWAP1 POP PUSH1 0x20 MUL DUP2 ADD SWAP1 PUSH2 0xA4A SWAP2 SWAP1 PUSH2 0x14B5 JUMP JUMPDEST PUSH1 0x20 ADD CALLDATALOAD CALLER PUSH1 0x1 CALLER PUSH1 0x40 MLOAD DUP8 PUSH4 0xFFFFFFFF AND PUSH1 0xE0 SHL DUP2 MSTORE PUSH1 0x4 ADD PUSH2 0xA73 SWAP7 SWAP6 SWAP5 SWAP4 SWAP3 SWAP2 SWAP1 PUSH2 0x13C3 JUMP JUMPDEST PUSH1 0x20 PUSH1 0x40 MLOAD DUP1 DUP4 SUB DUP2 PUSH1 0x0 DUP8 DUP1 EXTCODESIZE ISZERO DUP1 ISZERO PUSH2 0xA8D JUMPI PUSH1 0x0 DUP1 REVERT JUMPDEST POP GAS CALL ISZERO DUP1 ISZERO PUSH2 0xAA1 JUMPI RETURNDATASIZE PUSH1 0x0 DUP1 RETURNDATACOPY RETURNDATASIZE PUSH1 0x0 REVERT JUMPDEST POP POP POP POP PUSH1 0x40 MLOAD RETURNDATASIZE PUSH1 0x1F NOT PUSH1 0x1F DUP3 ADD AND DUP3 ADD DUP1 PUSH1 0x40 MSTORE POP DUP2 ADD SWAP1 PUSH2 0xAC5 SWAP2 SWAP1 PUSH2 0x1339 JUMP JUMPDEST POP PUSH1 0x1 ADD PUSH2 0x998 JUMP JUMPDEST PUSH1 0x0 DUP2 DUP2 JUMPDEST DUP2 DUP2 LT ISZERO PUSH2 0xC14 JUMPI DUP5 DUP5 DUP3 DUP2 DUP2 LT PUSH2 0xAED JUMPI PUSH2 0xAED PUSH2 0x152B JUMP JUMPDEST SWAP1 POP PUSH1 0x20 MUL DUP2 ADD SWAP1 PUSH2 0xAFF SWAP2 SWAP1 PUSH2 0x14B5 JUMP JUMPDEST PUSH2 0xB09 SWAP1 DUP1 PUSH2 0x14B5 JUMP JUMPDEST PUSH2 0xB17 SWAP1 PUSH1 0x20 DUP2 ADD SWAP1 PUSH2 0x125A JUMP JUMPDEST PUSH1 0x1 PUSH1 0x1 PUSH1 0xA0 SHL SUB AND PUSH4 0xB1D3F1C1 DUP7 DUP7 DUP5 DUP2 DUP2 LT PUSH2 0xB37 JUMPI PUSH2 0xB37 PUSH2 0x152B JUMP JUMPDEST SWAP1 POP PUSH1 0x20 MUL DUP2 ADD SWAP1 PUSH2 0xB49 SWAP2 SWAP1 PUSH2 0x14B5 JUMP JUMPDEST PUSH2 0xB53 SWAP1 DUP1 PUSH2 0x14B5 JUMP JUMPDEST PUSH2 0xB61 SWAP1 PUSH1 0x20 DUP2 ADD SWAP1 PUSH2 0x144B JUMP JUMPDEST DUP9 DUP9 DUP7 DUP2 DUP2 LT PUSH2 0xB73 JUMPI PUSH2 0xB73 PUSH2 0x152B JUMP JUMPDEST SWAP1 POP PUSH1 0x20 MUL DUP2 ADD SWAP1 PUSH2 0xB85 SWAP2 SWAP1 PUSH2 0x14B5 JUMP JUMPDEST PUSH1 0x20 ADD CALLDATALOAD ADDRESS PUSH1 0x1 CALLER PUSH1 0x40 MLOAD DUP8 PUSH4 0xFFFFFFFF AND PUSH1 0xE0 SHL DUP2 MSTORE PUSH1 0x4 ADD PUSH2 0xBAE SWAP7 SWAP6 SWAP5 SWAP4 SWAP3 SWAP2 SWAP1 PUSH2 0x13C3 JUMP JUMPDEST PUSH1 0x20 PUSH1 0x40 MLOAD DUP1 DUP4 SUB DUP2 PUSH1 0x0 DUP8 DUP1 EXTCODESIZE ISZERO DUP1 ISZERO PUSH2 0xBC8 JUMPI PUSH1 0x0 DUP1 REVERT JUMPDEST POP GAS CALL ISZERO DUP1 ISZERO PUSH2 0xBDC JUMPI RETURNDATASIZE PUSH1 0x0 DUP1 RETURNDATACOPY RETURNDATASIZE PUSH1 0x0 REVERT JUMPDEST POP POP POP POP PUSH1 0x40 MLOAD RETURNDATASIZE PUSH1 0x1F NOT PUSH1 0x1F DUP3 ADD AND DUP3 ADD DUP1 PUSH1 0x40 MSTORE POP DUP2 ADD SWAP1 PUSH2 0xC00 SWAP2 SWAP1 PUSH2 0x1339 JUMP JUMPDEST PUSH2 0xC0A SWAP1 DUP5 PUSH2 0x14CB JUMP JUMPDEST SWAP3 POP PUSH1 0x1 ADD PUSH2 0xAD3 JUMP JUMPDEST POP PUSH1 0x0 SWAP1 POP PUSH2 0xC23 DUP3 CALLVALUE PUSH2 0x14CB JUMP JUMPDEST SWAP1 POP DUP5 PUSH1 0x0 JUMPDEST DUP2 DUP2 LT ISZERO PUSH2 0xD6B JUMPI DUP8 DUP8 DUP3 DUP2 DUP2 LT PUSH2 0xC43 JUMPI PUSH2 0xC43 PUSH2 0x152B JUMP JUMPDEST SWAP1 POP PUSH1 0x20 MUL DUP2 ADD SWAP1 PUSH2 0xC55 SWAP2 SWAP1 PUSH2 0x14B5 JUMP JUMPDEST PUSH2 0xC5F SWAP1 DUP1 PUSH2 0x14B5 JUMP JUMPDEST PUSH2 0xC6D SWAP1 PUSH1 0x20 DUP2 ADD SWAP1 PUSH2 0x125A JUMP JUMPDEST PUSH1 0x1 PUSH1 0x1 PUSH1 0xA0 SHL SUB AND PUSH4 0x6D8B99F7 DUP10 DUP10 DUP5 DUP2 DUP2 LT PUSH2 0xC8D JUMPI PUSH2 0xC8D PUSH2 0x152B JUMP JUMPDEST SWAP1 POP PUSH1 0x20 MUL DUP2 ADD SWAP1 PUSH2 0xC9F SWAP2 SWAP1 PUSH2 0x14B5 JUMP JUMPDEST PUSH1 0x20 ADD CALLDATALOAD DUP11 DUP11 DUP6 DUP2 DUP2 LT PUSH2 0xCB5 JUMPI PUSH2 0xCB5 PUSH2 0x152B JUMP JUMPDEST SWAP1 POP PUSH1 0x20 MUL DUP2 ADD SWAP1 PUSH2 0xCC7 SWAP2 SWAP1 PUSH2 0x14B5 JUMP JUMPDEST PUSH2 0xCD1 SWAP1 DUP1 PUSH2 0x14B5 JUMP JUMPDEST PUSH2 0xCDF SWAP1 PUSH1 0x20 DUP2 ADD SWAP1 PUSH2 0x144B JUMP JUMPDEST DUP8 CALLER PUSH1 0x1 CALLER PUSH1 0x40 MLOAD DUP9 PUSH4 0xFFFFFFFF AND PUSH1 0xE0 SHL DUP2 MSTORE PUSH1 0x4 ADD PUSH2 0xD05 SWAP7 SWAP6 SWAP5 SWAP4 SWAP3 SWAP2 SWAP1 PUSH2 0x13C3 JUMP JUMPDEST PUSH1 0x20 PUSH1 0x40 MLOAD DUP1 DUP4 SUB DUP2 DUP6 DUP9 DUP1 EXTCODESIZE ISZERO DUP1 ISZERO PUSH2 0xD1E JUMPI PUSH1 0x0 DUP1 REVERT JUMPDEST POP GAS CALL ISZERO DUP1 ISZERO PUSH2 0xD32 JUMPI RETURNDATASIZE PUSH1 0x0 DUP1 RETURNDATACOPY RETURNDATASIZE PUSH1 0x0 REVERT JUMPDEST POP POP POP POP POP PUSH1 0x40 MLOAD RETURNDATASIZE PUSH1 0x1F NOT PUSH1 0x1F DUP3 ADD AND DUP3 ADD DUP1 PUSH1 0x40 MSTORE POP DUP2 ADD SWAP1 PUSH2 0xD57 SWAP2 SWAP1 PUSH2 0x1339 JUMP JUMPDEST PUSH2 0xD61 SWAP1 DUP5 PUSH2 0x14E3 JUMP JUMPDEST SWAP3 POP PUSH1 0x1 ADD PUSH2 0xC29 JUMP JUMPDEST POP POP DUP1 ISZERO PUSH2 0x831 JUMPI PUSH2 0x831 CALLER DUP3 PUSH2 0x107A JUMP JUMPDEST PUSH1 0x60 PUSH1 0x0 PUSH2 0xD8C DUP5 PUSH1 0x1 PUSH2 0x14CB JUMP JUMPDEST PUSH8 0xFFFFFFFFFFFFFFFF DUP2 GT ISZERO PUSH2 0xDA4 JUMPI PUSH2 0xDA4 PUSH2 0x1541 JUMP JUMPDEST PUSH1 0x40 MLOAD SWAP1 DUP1 DUP3 MSTORE DUP1 PUSH1 0x20 MUL PUSH1 0x20 ADD DUP3 ADD PUSH1 0x40 MSTORE DUP1 ISZERO PUSH2 0xDCD JUMPI DUP2 PUSH1 0x20 ADD PUSH1 0x20 DUP3 MUL DUP1 CALLDATASIZE DUP4 CALLDATACOPY ADD SWAP1 POP JUMPDEST POP SWAP1 POP PUSH1 0x0 DUP4 ISZERO PUSH2 0xE5E JUMPI PUSH1 0x40 MLOAD PUSH4 0xA5CB2B91 PUSH1 0xE0 SHL DUP2 MSTORE PUSH1 0x4 DUP2 ADD DUP7 SWAP1 MSTORE PUSH1 0x1 PUSH1 0x1 PUSH1 0xA0 SHL SUB DUP8 AND SWAP1 PUSH4 0xA5CB2B91 SWAP1 PUSH1 0x24 ADD PUSH1 0xC0 PUSH1 0x40 MLOAD DUP1 DUP4 SUB DUP2 DUP7 DUP1 EXTCODESIZE ISZERO DUP1 ISZERO PUSH2 0xE18 JUMPI PUSH1 0x0 DUP1 REVERT JUMPDEST POP GAS STATICCALL ISZERO DUP1 ISZERO PUSH2 0xE2C JUMPI RETURNDATASIZE PUSH1 0x0 DUP1 RETURNDATACOPY RETURNDATASIZE PUSH1 0x0 REVERT JUMPDEST POP POP POP POP PUSH1 0x40 MLOAD RETURNDATASIZE PUSH1 0x1F NOT PUSH1 0x1F DUP3 ADD AND DUP3 ADD DUP1 PUSH1 0x40 MSTORE POP DUP2 ADD SWAP1 PUSH2 0xE50 SWAP2 SWAP1 PUSH2 0x12B9 JUMP JUMPDEST POP SWAP1 SWAP5 POP PUSH2 0xEDF SWAP4 POP POP POP POP JUMP JUMPDEST PUSH1 0x40 MLOAD PUSH4 0x614AF2B PUSH1 0xE1 SHL DUP2 MSTORE PUSH1 0x4 DUP2 ADD DUP7 SWAP1 MSTORE PUSH1 0x1 PUSH1 0x1 PUSH1 0xA0 SHL SUB DUP8 AND SWAP1 PUSH4 0xC295E56 SWAP1 PUSH1 0x24 ADD PUSH1 0xC0 PUSH1 0x40 MLOAD DUP1 DUP4 SUB DUP2 DUP7 DUP1 EXTCODESIZE ISZERO DUP1 ISZERO PUSH2 0xE9E JUMPI PUSH1 0x0 DUP1 REVERT JUMPDEST POP GAS STATICCALL ISZERO DUP1 ISZERO PUSH2 0xEB2 JUMPI RETURNDATASIZE PUSH1 0x0 DUP1 RETURNDATACOPY RETURNDATASIZE PUSH1 0x0 REVERT JUMPDEST POP POP POP POP PUSH1 0x40 MLOAD RETURNDATASIZE PUSH1 0x1F NOT PUSH1 0x1F DUP3 ADD AND DUP3 ADD DUP1 PUSH1 0x40 MSTORE POP DUP2 ADD SWAP1 PUSH2 0xED6 SWAP2 SWAP1 PUSH2 0x12B9 JUMP JUMPDEST POP SWAP1 SWAP5 POP POP POP POP POP JUMPDEST DUP1 DUP3 DUP7 DUP2 MLOAD DUP2 LT PUSH2 0xEF2 JUMPI PUSH2 0xEF2 PUSH2 0x152B JUMP JUMPDEST PUSH1 0x20 SWAP1 DUP2 MUL SWAP2 SWAP1 SWAP2 ADD ADD MSTORE PUSH1 0x1 JUMPDEST DUP6 DUP2 LT ISZERO PUSH2 0x106F JUMPI PUSH1 0x0 DUP6 ISZERO PUSH2 0xFA5 JUMPI PUSH1 0x1 PUSH1 0x1 PUSH1 0xA0 SHL SUB DUP9 AND PUSH4 0xA5CB2B91 PUSH2 0xF29 DUP5 DUP11 PUSH2 0x14E3 JUMP JUMPDEST PUSH1 0x40 MLOAD DUP3 PUSH4 0xFFFFFFFF AND PUSH1 0xE0 SHL DUP2 MSTORE PUSH1 0x4 ADD PUSH2 0xF47 SWAP2 DUP2 MSTORE PUSH1 0x20 ADD SWAP1 JUMP JUMPDEST PUSH1 0xC0 PUSH1 0x40 MLOAD DUP1 DUP4 SUB DUP2 DUP7 DUP1 EXTCODESIZE ISZERO DUP1 ISZERO PUSH2 0xF5F JUMPI PUSH1 0x0 DUP1 REVERT JUMPDEST POP GAS STATICCALL ISZERO DUP1 ISZERO PUSH2 0xF73 JUMPI RETURNDATASIZE PUSH1 0x0 DUP1 RETURNDATACOPY RETURNDATASIZE PUSH1 0x0 REVERT JUMPDEST POP POP POP POP PUSH1 0x40 MLOAD RETURNDATASIZE PUSH1 0x1F NOT PUSH1 0x1F DUP3 ADD AND DUP3 ADD DUP1 PUSH1 0x40 MSTORE POP DUP2 ADD SWAP1 PUSH2 0xF97 SWAP2 SWAP1 PUSH2 0x12B9 JUMP JUMPDEST POP SWAP1 SWAP5 POP PUSH2 0x1035 SWAP4 POP POP POP POP JUMP JUMPDEST PUSH1 0x1 PUSH1 0x1 PUSH1 0xA0 SHL SUB DUP9 AND PUSH4 0xC295E56 PUSH2 0xFBE DUP5 DUP11 PUSH2 0x14E3 JUMP JUMPDEST PUSH1 0x40 MLOAD DUP3 PUSH4 0xFFFFFFFF AND PUSH1 0xE0 SHL DUP2 MSTORE PUSH1 0x4 ADD PUSH2 0xFDC SWAP2 DUP2 MSTORE PUSH1 0x20 ADD SWAP1 JUMP JUMPDEST PUSH1 0xC0 PUSH1 0x40 MLOAD DUP1 DUP4 SUB DUP2 DUP7 DUP1 EXTCODESIZE ISZERO DUP1 ISZERO PUSH2 0xFF4 JUMPI PUSH1 0x0 DUP1 REVERT JUMPDEST POP GAS STATICCALL ISZERO DUP1 ISZERO PUSH2 0x1008 JUMPI RETURNDATASIZE PUSH1 0x0 DUP1 RETURNDATACOPY RETURNDATASIZE PUSH1 0x0 REVERT JUMPDEST POP POP POP POP PUSH1 0x40 MLOAD RETURNDATASIZE PUSH1 0x1F NOT PUSH1 0x1F DUP3 ADD AND DUP3 ADD DUP1 PUSH1 0x40 MSTORE POP DUP2 ADD SWAP1 PUSH2 0x102C SWAP2 SWAP1 PUSH2 0x12B9 JUMP JUMPDEST POP SWAP1 SWAP5 POP POP POP POP POP JUMPDEST PUSH2 0x103F DUP2 DUP5 PUSH2 0x14E3 JUMP JUMPDEST DUP5 DUP4 DUP2 MLOAD DUP2 LT PUSH2 0x1051 JUMPI PUSH2 0x1051 PUSH2 0x152B JUMP JUMPDEST PUSH1 0x20 SWAP1 DUP2 MUL SWAP2 SWAP1 SWAP2 ADD ADD MSTORE POP DUP1 PUSH2 0x1067 DUP2 PUSH2 0x14FA JUMP JUMPDEST SWAP2 POP POP PUSH2 0xF00 JUMP JUMPDEST POP SWAP1 SWAP6 SWAP5 POP POP POP POP POP JUMP JUMPDEST PUSH1 0x0 DUP1 PUSH1 0x0 DUP1 PUSH1 0x0 DUP6 DUP8 GAS CALL SWAP1 POP DUP1 PUSH2 0x10CB JUMPI PUSH1 0x40 MLOAD PUSH3 0x461BCD PUSH1 0xE5 SHL DUP2 MSTORE PUSH1 0x20 PUSH1 0x4 DUP3 ADD MSTORE PUSH1 0x13 PUSH1 0x24 DUP3 ADD MSTORE PUSH19 0x11551217D514905394D1915497D19052531151 PUSH1 0x6A SHL PUSH1 0x44 DUP3 ADD MSTORE PUSH1 0x64 ADD PUSH2 0x3CA JUMP JUMPDEST POP POP POP JUMP JUMPDEST PUSH1 0x0 DUP1 DUP4 PUSH1 0x1F DUP5 ADD SLT PUSH2 0x10E2 JUMPI PUSH1 0x0 DUP1 REVERT JUMPDEST POP DUP2 CALLDATALOAD PUSH8 0xFFFFFFFFFFFFFFFF DUP2 GT ISZERO PUSH2 0x10FA JUMPI PUSH1 0x0 DUP1 REVERT JUMPDEST PUSH1 0x20 DUP4 ADD SWAP2 POP DUP4 PUSH1 0x20 DUP3 PUSH1 0x5 SHL DUP6 ADD ADD GT ISZERO PUSH2 0x1115 JUMPI PUSH1 0x0 DUP1 REVERT JUMPDEST SWAP3 POP SWAP3 SWAP1 POP JUMP JUMPDEST PUSH1 0x0 DUP1 PUSH1 0x0 DUP1 PUSH1 0x40 DUP6 DUP8 SUB SLT ISZERO PUSH2 0x1132 JUMPI PUSH1 0x0 DUP1 REVERT JUMPDEST DUP5 CALLDATALOAD PUSH8 0xFFFFFFFFFFFFFFFF DUP1 DUP3 GT ISZERO PUSH2 0x114A JUMPI PUSH1 0x0 DUP1 REVERT JUMPDEST PUSH2 0x1156 DUP9 DUP4 DUP10 ADD PUSH2 0x10D0 JUMP JUMPDEST SWAP1 SWAP7 POP SWAP5 POP PUSH1 0x20 DUP8 ADD CALLDATALOAD SWAP2 POP DUP1 DUP3 GT ISZERO PUSH2 0x116F JUMPI PUSH1 0x0 DUP1 REVERT JUMPDEST POP PUSH2 0x117C DUP8 DUP3 DUP9 ADD PUSH2 0x10D0 JUMP JUMPDEST SWAP6 SWAP9 SWAP5 SWAP8 POP SWAP6 POP POP POP POP JUMP JUMPDEST PUSH1 0x0 DUP1 PUSH1 0x20 DUP4 DUP6 SUB SLT ISZERO PUSH2 0x119B JUMPI PUSH1 0x0 DUP1 REVERT JUMPDEST DUP3 CALLDATALOAD PUSH8 0xFFFFFFFFFFFFFFFF DUP2 GT ISZERO PUSH2 0x11B2 JUMPI PUSH1 0x0 DUP1 REVERT JUMPDEST PUSH2 0x11BE DUP6 DUP3 DUP7 ADD PUSH2 0x10D0 JUMP JUMPDEST SWAP1 SWAP7 SWAP1 SWAP6 POP SWAP4 POP POP POP POP JUMP JUMPDEST PUSH1 0x0 PUSH1 0x20 DUP3 DUP5 SUB SLT ISZERO PUSH2 0x11DC JUMPI PUSH1 0x0 DUP1 REVERT JUMPDEST DUP2 MLOAD PUSH2 0x11E7 DUP2 PUSH2 0x156F JUMP JUMPDEST SWAP4 SWAP3 POP POP POP JUMP JUMPDEST PUSH1 0x0 DUP1 PUSH1 0x0 DUP1 PUSH1 0x0 PUSH1 0xA0 DUP7 DUP9 SUB SLT ISZERO PUSH2 0x1206 JUMPI PUSH1 0x0 DUP1 REVERT JUMPDEST DUP6 CALLDATALOAD PUSH2 0x1211 DUP2 PUSH2 0x1557 JUMP JUMPDEST SWAP5 POP PUSH1 0x20 DUP7 ADD CALLDATALOAD PUSH2 0x1221 DUP2 PUSH2 0x1557 JUMP JUMPDEST SWAP4 POP PUSH1 0x40 DUP7 ADD CALLDATALOAD PUSH2 0x1231 DUP2 PUSH2 0x1557 JUMP JUMPDEST SWAP3 POP PUSH1 0x60 DUP7 ADD CALLDATALOAD SWAP2 POP PUSH1 0x80 DUP7 ADD CALLDATALOAD PUSH1 0x4 DUP2 LT PUSH2 0x124C JUMPI PUSH1 0x0 DUP1 REVERT JUMPDEST DUP1 SWAP2 POP POP SWAP3 SWAP6 POP SWAP3 SWAP6 SWAP1 SWAP4 POP JUMP JUMPDEST PUSH1 0x0 PUSH1 0x20 DUP3 DUP5 SUB SLT ISZERO PUSH2 0x126C JUMPI PUSH1 0x0 DUP1 REVERT JUMPDEST DUP2 CALLDATALOAD PUSH2 0x11E7 DUP2 PUSH2 0x1557 JUMP JUMPDEST PUSH1 0x0 DUP1 PUSH1 0x0 PUSH1 0x60 DUP5 DUP7 SUB SLT ISZERO PUSH2 0x128C JUMPI PUSH1 0x0 DUP1 REVERT JUMPDEST DUP4 CALLDATALOAD PUSH2 0x1297 DUP2 PUSH2 0x1557 JUMP JUMPDEST SWAP3 POP PUSH1 0x20 DUP5 ADD CALLDATALOAD SWAP2 POP PUSH1 0x40 DUP5 ADD CALLDATALOAD PUSH2 0x12AE DUP2 PUSH2 0x156F JUMP JUMPDEST DUP1 SWAP2 POP POP SWAP3 POP SWAP3 POP SWAP3 JUMP JUMPDEST PUSH1 0x0 DUP1 PUSH1 0x0 DUP1 PUSH1 0x0 DUP1 PUSH1 0xC0 DUP8 DUP10 SUB SLT ISZERO PUSH2 0x12D2 JUMPI PUSH1 0x0 DUP1 REVERT JUMPDEST DUP7 MLOAD PUSH1 0x3 DUP2 LT PUSH2 0x12E1 JUMPI PUSH1 0x0 DUP1 REVERT JUMPDEST PUSH1 0x20 DUP9 ADD MLOAD PUSH1 0x40 DUP10 ADD MLOAD PUSH1 0x60 DUP11 ADD MLOAD PUSH1 0x80 DUP12 ADD MLOAD PUSH1 0xA0 SWAP1 SWAP12 ADD MLOAD SWAP4 SWAP13 SWAP3 SWAP12 POP SWAP1 SWAP10 SWAP1 SWAP9 POP SWAP7 POP SWAP1 SWAP5 POP SWAP3 POP POP POP JUMP JUMPDEST PUSH1 0x0 PUSH1 0x20 DUP3 DUP5 SUB SLT ISZERO PUSH2 0x1322 JUMPI PUSH1 0x0 DUP1 REVERT JUMPDEST DUP2 MLOAD PUSH1 0x1 PUSH1 0x1 PUSH1 0x80 SHL SUB DUP2 AND DUP2 EQ PUSH2 0x11E7 JUMPI PUSH1 0x0 DUP1 REVERT JUMPDEST PUSH1 0x0 PUSH1 0x20 DUP3 DUP5 SUB SLT ISZERO PUSH2 0x134B JUMPI PUSH1 0x0 DUP1 REVERT JUMPDEST POP MLOAD SWAP2 SWAP1 POP JUMP JUMPDEST DUP2 DUP4 MSTORE PUSH1 0x0 PUSH1 0x1 PUSH1 0x1 PUSH1 0xFB SHL SUB DUP4 GT ISZERO PUSH2 0x136B JUMPI PUSH1 0x0 DUP1 REVERT JUMPDEST DUP3 PUSH1 0x5 SHL DUP1 DUP4 PUSH1 0x20 DUP8 ADD CALLDATACOPY PUSH1 0x0 SWAP5 ADD PUSH1 0x20 ADD SWAP4 DUP5 MSTORE POP SWAP2 SWAP3 SWAP2 POP POP JUMP JUMPDEST PUSH1 0x1 PUSH1 0x1 PUSH1 0xA0 SHL SUB DUP4 AND DUP2 MSTORE PUSH1 0x40 DUP2 ADD PUSH1 0x4 DUP4 LT PUSH2 0x13B6 JUMPI PUSH4 0x4E487B71 PUSH1 0xE0 SHL PUSH1 0x0 MSTORE PUSH1 0x21 PUSH1 0x4 MSTORE PUSH1 0x24 PUSH1 0x0 REVERT JUMPDEST DUP3 PUSH1 0x20 DUP4 ADD MSTORE SWAP4 SWAP3 POP POP POP JUMP JUMPDEST PUSH1 0xA0 DUP2 MSTORE PUSH1 0x0 PUSH2 0x13D7 PUSH1 0xA0 DUP4 ADD DUP9 DUP11 PUSH2 0x1352 JUMP JUMPDEST PUSH1 0x20 DUP4 ADD SWAP7 SWAP1 SWAP7 MSTORE POP PUSH1 0x1 PUSH1 0x1 PUSH1 0xA0 SHL SUB SWAP4 DUP5 AND PUSH1 0x40 DUP3 ADD MSTORE SWAP2 ISZERO ISZERO PUSH1 0x60 DUP4 ADD MSTORE SWAP1 SWAP2 AND PUSH1 0x80 SWAP1 SWAP2 ADD MSTORE SWAP3 SWAP2 POP POP JUMP JUMPDEST PUSH1 0x20 DUP1 DUP3 MSTORE DUP3 MLOAD DUP3 DUP3 ADD DUP2 SWAP1 MSTORE PUSH1 0x0 SWAP2 SWAP1 DUP5 DUP3 ADD SWAP1 PUSH1 0x40 DUP6 ADD SWAP1 DUP5 JUMPDEST DUP2 DUP2 LT ISZERO PUSH2 0x143F JUMPI DUP4 MLOAD DUP4 MSTORE SWAP3 DUP5 ADD SWAP3 SWAP2 DUP5 ADD SWAP2 PUSH1 0x1 ADD PUSH2 0x1423 JUMP JUMPDEST POP SWAP1 SWAP7 SWAP6 POP POP POP POP POP POP JUMP JUMPDEST PUSH1 0x0 DUP1 DUP4 CALLDATALOAD PUSH1 0x1E NOT DUP5 CALLDATASIZE SUB ADD DUP2 SLT PUSH2 0x1462 JUMPI PUSH1 0x0 DUP1 REVERT JUMPDEST DUP4 ADD DUP1 CALLDATALOAD SWAP2 POP PUSH8 0xFFFFFFFFFFFFFFFF DUP3 GT ISZERO PUSH2 0x147D JUMPI PUSH1 0x0 DUP1 REVERT JUMPDEST PUSH1 0x20 ADD SWAP2 POP PUSH1 0x5 DUP2 SWAP1 SHL CALLDATASIZE SUB DUP3 SGT ISZERO PUSH2 0x1115 JUMPI PUSH1 0x0 DUP1 REVERT JUMPDEST PUSH1 0x0 DUP3 CALLDATALOAD PUSH1 0x5E NOT DUP4 CALLDATASIZE SUB ADD DUP2 SLT PUSH2 0x14AB JUMPI PUSH1 0x0 DUP1 REVERT JUMPDEST SWAP2 SWAP1 SWAP2 ADD SWAP3 SWAP2 POP POP JUMP JUMPDEST PUSH1 0x0 DUP3 CALLDATALOAD PUSH1 0x3E NOT DUP4 CALLDATASIZE SUB ADD DUP2 SLT PUSH2 0x14AB JUMPI PUSH1 0x0 DUP1 REVERT JUMPDEST PUSH1 0x0 DUP3 NOT DUP3 GT ISZERO PUSH2 0x14DE JUMPI PUSH2 0x14DE PUSH2 0x1515 JUMP JUMPDEST POP ADD SWAP1 JUMP JUMPDEST PUSH1 0x0 DUP3 DUP3 LT ISZERO PUSH2 0x14F5 JUMPI PUSH2 0x14F5 PUSH2 0x1515 JUMP JUMPDEST POP SUB SWAP1 JUMP JUMPDEST PUSH1 0x0 PUSH1 0x0 NOT DUP3 EQ ISZERO PUSH2 0x150E JUMPI PUSH2 0x150E PUSH2 0x1515 JUMP JUMPDEST POP PUSH1 0x1 ADD SWAP1 JUMP JUMPDEST PUSH4 0x4E487B71 PUSH1 0xE0 SHL PUSH1 0x0 MSTORE PUSH1 0x11 PUSH1 0x4 MSTORE PUSH1 0x24 PUSH1 0x0 REVERT JUMPDEST PUSH4 0x4E487B71 PUSH1 0xE0 SHL PUSH1 0x0 MSTORE PUSH1 0x32 PUSH1 0x4 MSTORE PUSH1 0x24 PUSH1 0x0 REVERT JUMPDEST PUSH4 0x4E487B71 PUSH1 0xE0 SHL PUSH1 0x0 MSTORE PUSH1 0x41 PUSH1 0x4 MSTORE PUSH1 0x24 PUSH1 0x0 REVERT JUMPDEST PUSH1 0x1 PUSH1 0x1 PUSH1 0xA0 SHL SUB DUP2 AND DUP2 EQ PUSH2 0x156C JUMPI PUSH1 0x0 DUP1 REVERT JUMPDEST POP JUMP JUMPDEST DUP1 ISZERO ISZERO DUP2 EQ PUSH2 0x156C JUMPI PUSH1 0x0 DUP1 REVERT INVALID LOG2 PUSH5 0x6970667358 0x22 SLT KECCAK256 0x4B 0xDA XOR 0x25 LOG3 PUSH13 0x39BD3467480BDECCEFCFEB2A6C 0xE5 DUP10 MSIZE PUSH26 0xBE0F84BAA463BFE4A164736F6C63430008070033000000000000 "
		},
		"gasEstimates": {
			"creation": {
				"codeDepositCost": "1111000",
				"executionCost": "infinite",
				"totalCost": "infinite"
			},
			"external": {
				"buyNFTsThenSellWithETH(((address,uint256[]),uint256)[],((address,uint256[]),uint256)[])": "infinite",
				"factory()": "infinite",
				"getNFTQuoteForPartialFill(address,uint256,bool)": "infinite",
				"pairTransferNFTFrom(address,address,address,uint256,uint8)": "infinite",
				"robustBuySellWithETHAndPartialFill(((address,uint256[]),uint256,uint256[])[],((address,uint256[]),uint256,uint256[])[])": "infinite",
				"sellNFTsThenBuyWithETH(((address,uint256[]),uint256)[],((address,uint256[]),uint256)[])": "infinite",
				"swapETHForSpecificNFTs(((address,uint256[]),uint256)[])": "infinite",
				"swapNFTsForToken(((address,uint256[]),uint256)[])": "infinite"
			},
			"internal": {
				"_buyWithPartialFill()": "infinite"
			}
		},
		"methodIdentifiers": {
			"buyNFTsThenSellWithETH(((address,uint256[]),uint256)[],((address,uint256[]),uint256)[])": "e5e2cf81",
			"factory()": "c45a0155",
			"getNFTQuoteForPartialFill(address,uint256,bool)": "ff4af8bf",
			"pairTransferNFTFrom(address,address,address,uint256,uint8)": "748ff339",
			"robustBuySellWithETHAndPartialFill(((address,uint256[]),uint256,uint256[])[],((address,uint256[]),uint256,uint256[])[])": "cb2dee43",
			"sellNFTsThenBuyWithETH(((address,uint256[]),uint256)[],((address,uint256[]),uint256)[])": "e9f25eb3",
			"swapETHForSpecificNFTs(((address,uint256[]),uint256)[])": "2ac3e953",
			"swapNFTsForToken(((address,uint256[]),uint256)[])": "8bfb7643"
		}
	},
	"abi": [
		{
			"inputs": [
				{
					"internalType": "contract ILSSVMPairFactoryLike",
					"name": "_factory",
					"type": "address"
				}
			],
			"stateMutability": "nonpayable",
			"type": "constructor"
		},
		{
			"inputs": [
				{
					"components": [
						{
							"components": [
								{
									"internalType": "contract LSSVMPair",
									"name": "pair",
									"type": "address"
								},
								{
									"internalType": "uint256[]",
									"name": "nftIds",
									"type": "uint256[]"
								}
							],
							"internalType": "struct LSSVMRouter2.PairSwapSpecific",
							"name": "swapInfo",
							"type": "tuple"
						},
						{
							"internalType": "uint256",
							"name": "maxCost",
							"type": "uint256"
						}
					],
					"internalType": "struct LSSVMRouter2.RobustPairSwapSpecific[]",
					"name": "buyList",
					"type": "tuple[]"
				},
				{
					"components": [
						{
							"components": [
								{
									"internalType": "contract LSSVMPair",
									"name": "pair",
									"type": "address"
								},
								{
									"internalType": "uint256[]",
									"name": "nftIds",
									"type": "uint256[]"
								}
							],
							"internalType": "struct LSSVMRouter2.PairSwapSpecific",
							"name": "swapInfo",
							"type": "tuple"
						},
						{
							"internalType": "uint256",
							"name": "minOutput",
							"type": "uint256"
						}
					],
					"internalType": "struct LSSVMRouter2.RobustPairSwapSpecificForToken[]",
					"name": "sellList",
					"type": "tuple[]"
				}
			],
			"name": "buyNFTsThenSellWithETH",
			"outputs": [],
			"stateMutability": "payable",
			"type": "function"
		},
		{
			"inputs": [],
			"name": "factory",
			"outputs": [
				{
					"internalType": "contract ILSSVMPairFactoryLike",
					"name": "",
					"type": "address"
				}
			],
			"stateMutability": "view",
			"type": "function"
		},
		{
			"inputs": [
				{
					"internalType": "contract LSSVMPair",
					"name": "pair",
					"type": "address"
				},
				{
					"internalType": "uint256",
					"name": "numNFTs",
					"type": "uint256"
				},
				{
					"internalType": "bool",
					"name": "isBuy",
					"type": "bool"
				}
			],
			"name": "getNFTQuoteForPartialFill",
			"outputs": [
				{
					"internalType": "uint256[]",
					"name": "",
					"type": "uint256[]"
				}
			],
			"stateMutability": "view",
			"type": "function"
		},
		{
			"inputs": [
				{
					"internalType": "contract IERC721",
					"name": "nft",
					"type": "address"
				},
				{
					"internalType": "address",
					"name": "from",
					"type": "address"
				},
				{
					"internalType": "address",
					"name": "to",
					"type": "address"
				},
				{
					"internalType": "uint256",
					"name": "id",
					"type": "uint256"
				},
				{
					"internalType": "enum ILSSVMPairFactoryLike.PairVariant",
					"name": "variant",
					"type": "uint8"
				}
			],
			"name": "pairTransferNFTFrom",
			"outputs": [],
			"stateMutability": "nonpayable",
			"type": "function"
		},
		{
			"inputs": [
				{
					"components": [
						{
							"components": [
								{
									"internalType": "contract LSSVMPair",
									"name": "pair",
									"type": "address"
								},
								{
									"internalType": "uint256[]",
									"name": "nftIds",
									"type": "uint256[]"
								}
							],
							"internalType": "struct LSSVMRouter2.PairSwapSpecific",
							"name": "swapInfo",
							"type": "tuple"
						},
						{
							"internalType": "uint256",
							"name": "expectedSpotPrice",
							"type": "uint256"
						},
						{
							"internalType": "uint256[]",
							"name": "maxCostPerNumNFTs",
							"type": "uint256[]"
						}
					],
					"internalType": "struct LSSVMRouter2.PairSwapSpecificPartialFill[]",
					"name": "buyList",
					"type": "tuple[]"
				},
				{
					"components": [
						{
							"components": [
								{
									"internalType": "contract LSSVMPair",
									"name": "pair",
									"type": "address"
								},
								{
									"internalType": "uint256[]",
									"name": "nftIds",
									"type": "uint256[]"
								}
							],
							"internalType": "struct LSSVMRouter2.PairSwapSpecific",
							"name": "swapInfo",
							"type": "tuple"
						},
						{
							"internalType": "uint256",
							"name": "expectedSpotPrice",
							"type": "uint256"
						},
						{
							"internalType": "uint256[]",
							"name": "minOutputPerNumNFTs",
							"type": "uint256[]"
						}
					],
					"internalType": "struct LSSVMRouter2.PairSwapSpecificPartialFillForToken[]",
					"name": "sellList",
					"type": "tuple[]"
				}
			],
			"name": "robustBuySellWithETHAndPartialFill",
			"outputs": [],
			"stateMutability": "payable",
			"type": "function"
		},
		{
			"inputs": [
				{
					"components": [
						{
							"components": [
								{
									"internalType": "contract LSSVMPair",
									"name": "pair",
									"type": "address"
								},
								{
									"internalType": "uint256[]",
									"name": "nftIds",
									"type": "uint256[]"
								}
							],
							"internalType": "struct LSSVMRouter2.PairSwapSpecific",
							"name": "swapInfo",
							"type": "tuple"
						},
						{
							"internalType": "uint256",
							"name": "maxCost",
							"type": "uint256"
						}
					],
					"internalType": "struct LSSVMRouter2.RobustPairSwapSpecific[]",
					"name": "buyList",
					"type": "tuple[]"
				},
				{
					"components": [
						{
							"components": [
								{
									"internalType": "contract LSSVMPair",
									"name": "pair",
									"type": "address"
								},
								{
									"internalType": "uint256[]",
									"name": "nftIds",
									"type": "uint256[]"
								}
							],
							"internalType": "struct LSSVMRouter2.PairSwapSpecific",
							"name": "swapInfo",
							"type": "tuple"
						},
						{
							"internalType": "uint256",
							"name": "minOutput",
							"type": "uint256"
						}
					],
					"internalType": "struct LSSVMRouter2.RobustPairSwapSpecificForToken[]",
					"name": "sellList",
					"type": "tuple[]"
				}
			],
			"name": "sellNFTsThenBuyWithETH",
			"outputs": [],
			"stateMutability": "payable",
			"type": "function"
		},
		{
			"inputs": [
				{
					"components": [
						{
							"components": [
								{
									"internalType": "contract LSSVMPair",
									"name": "pair",
									"type": "address"
								},
								{
									"internalType": "uint256[]",
									"name": "nftIds",
									"type": "uint256[]"
								}
							],
							"internalType": "struct LSSVMRouter2.PairSwapSpecific",
							"name": "swapInfo",
							"type": "tuple"
						},
						{
							"internalType": "uint256",
							"name": "maxCost",
							"type": "uint256"
						}
					],
					"internalType": "struct LSSVMRouter2.RobustPairSwapSpecific[]",
					"name": "swapList",
					"type": "tuple[]"
				}
			],
			"name": "swapETHForSpecificNFTs",
			"outputs": [
				{
					"internalType": "uint256",
					"name": "remainingValue",
					"type": "uint256"
				}
			],
			"stateMutability": "payable",
			"type": "function"
		},
		{
			"inputs": [
				{
					"components": [
						{
							"components": [
								{
									"internalType": "contract LSSVMPair",
									"name": "pair",
									"type": "address"
								},
								{
									"internalType": "uint256[]",
									"name": "nftIds",
									"type": "uint256[]"
								}
							],
							"internalType": "struct LSSVMRouter2.PairSwapSpecific",
							"name": "swapInfo",
							"type": "tuple"
						},
						{
							"internalType": "uint256",
							"name": "minOutput",
							"type": "uint256"
						}
					],
					"internalType": "struct LSSVMRouter2.RobustPairSwapSpecificForToken[]",
					"name": "swapList",
					"type": "tuple[]"
				}
			],
			"name": "swapNFTsForToken",
			"outputs": [
				{
					"internalType": "uint256",
					"name": "outputAmount",
					"type": "uint256"
				}
			],
			"stateMutability": "nonpayable",
			"type": "function"
		}
	]
}